:020000040800F2
:10000000584900204901000811220008731800080F
:100010000D220008E1010008B129000800000000DD
:10002000000000000000000000000000952600080D
:1000300011020008000000004D2200089726000869
:100040006301000863010008630100086301000800
:10005000630100086301000813020008630100083F
:1000600063010008630100086301000863010008E0
:1000700063010008630100086301000863010008D0
:1000800063010008630100086301000863010008C0
:1000900063010008630100086301000863010008B0
:1000A00063010008630100086301000863010008A0
:1000B0006301000863010008630100086301000890
:1000C0006301000863010008630100086301000880
:1000D000630100088D29000863010008630100081E
:1000E0006301000863010008630100086301000860
:1000F0006301000863010008630100086301000850
:10010000630100086301000863010008630100083F
:10011000630100086301000863010008630100082F
:10012000630100086301000863010008630100081F
:10013000DFF810D000F042F800480047512D0008C9
:10014000AFF3008058490020064880470648004722
:10015000FEE7FEE7FEE7FEE7FEE7FEE7FEE7FEE777
:10016000FEE7FEE70127000831010008D2B201E0F6
:1001700000F8012B491EFBD270470022F6E710B5AC
:1001800013460A4604461946FFF7F0FF204610BD05
:1001900030B50B46014600202022012409E021FA57
:1001A00002F59D4205D303FA02F5491B04FA02F554
:1001B0002844151EA2F10102F1DC30BD064C074DAA
:1001C00006E0E06840F0010394E807009847103427
:1001D000AC42F6D3FFF7B0FF4C6A00086C6A000827
:1001E00000BFFEE710B50848084908604FF4E13049
:1001F0004860002105488160C160016181610C2176
:10020000416101F04CFA10BD003801401845002052
:100210007047704770B50446B3F5804F13D1D1E9EC
:10022000000540EA05108D6840EA05208D692843E5
:100230008D8940EA054054F82250064E3540284347
:1002400044F8220003E06FF0704044F822000020E0
:1002500070BD00000000F0CF10B50246086852F8EB
:10026000200020F001000B6842F82300886808286D
:1002700022D1486840F040008B681843CB6818438F
:100280000B6918434B6918438B691843CB691843B2
:100290000B6A18434B6A18438B6A1843CB6A18439E
:1002A0000B6B18430B6852F82330144C234018434F
:1002B0000B6842F823001FE0D1E901031843CB6823
:1002C00018430B6918434B6918438B691843CB6972
:1002D00018430B6A18434B6A18438B6A1843CB6A5E
:1002E00018430B6B18430B6852F82330034C234020
:1002F00018430B6842F82300002010BD8100F7FF6F
:1003000010B50346D1E9000440EA04108C6840EAC5
:1003100004208C8940EA0444088A401E44EA0054C0
:10032000087D801E44EA00608C692043541C53F809
:10033000244004F040442043541C43F8240000208F
:1003400010BD00002DE9F04180460C4610480078B1
:1003500020B902F015F901200D4908702512E6B206
:10036000A5F1A101C1EB011202EB411106EB410124
:10037000A1390802C11700EB5171CF100548391897
:100380002022404602F0D4F80020BDE8F0810000B1
:1003900028000020003018002DE9F847024600240C
:1003A000002000258446002700237BE14FF0010850
:1003B00008FA03F4D1F8008008EA0400A0427DD1D5
:1003C000DFF8ECA2D1F80480A8EB0A09D0453AD0B6
:1003D00014DCB8F1030F50D009DCB8F1000F31D0B4
:1003E000B8F1010F1CD0B8F1020F49D120E0B8F1EB
:1003F000110F18D0B8F1120F42D11EE0B9F5881FC5
:1004000025D006DCB9F5803F20D0B9F5801F37D163
:100410001AE0B9F5001F18D0B9F5041F30D117E064
:10042000D1F80CC02DE0D1F80C8008F1040C28E0C4
:10043000D1F80C8008F1080C23E0D1F80C8008F109
:100440000C0C1EE000BF00BF00BF00BF00BF00BF1C
:10045000D1F80880B8F1000F02D14FF0040C0BE086
:10046000D1F80880B8F1010F03D14FF0080C1461E6
:1004700002E04FF0080C546103E04FF0000C00E084
:1004800000BF00BFFF2801D8904601E002F1040838
:100490004646FF2802D84FEA830803E0A3F1080884
:1004A0004FEA88084746D6F800804FF00F0909FA4E
:1004B00007F928EA09080CFA07F900E07AE048EAA7
:1004C0000908C6F80080D1F8048008F08058B8F117
:1004D000805F6FD100BFDFF8DC81D8F8188048F06A
:1004E0000108DFF8D091C9F81880C846D8F81880FC
:1004F00008F00108CDF8008000BF00BF4FEAB9380E
:100500004FEA930958F829504FEA83784FEA18794F
:100510004FF00F0808FA09F825EA0805DFF8988176
:10052000424502D14FF0000824E0DFF890814245B7
:1005300002D14FF001081DE0DFF88481424502D16D
:100540004FF0020816E0DFF87C81424502D14FF0FF
:1005500003080FE0DFF87081424502D14FF0040834
:1005600008E0DFF86881424502D14FF0050801E05C
:100570004FF006084FEA83794FEA197908FA09F82B
:1005800048EA0505DFF848814FEA930948F8295001
:10059000D1F8048008F48038B8F5803F0BD1DFF83B
:1005A0003481D8F8008048EA0008DFF82891C9F8BB
:1005B00000800AE075E0DFF81C81D8F8008028EAA6
:1005C0000008DFF81091C9F80080D1F8048008F421
:1005D0000038B8F5003F0ED1DFF8F88008F10408C4
:1005E000D8F8008048EA0008DFF8E89009F104092B
:1005F000C9F800800DE0DFF8DC8008F10408D8F8C5
:10060000008028EA0008DFF8CC9009F10409C9F855
:100610000080D1F8048008F48018B8F5801F0ED14E
:10062000DFF8B08008F10808D8F8008048EA000830
:10063000DFF8A09009F10809C9F800800DE0DFF8A3
:10064000948008F10808D8F8008028EA0008DFF84C
:10065000849009F10809C9F80080D1F8048008F4F1
:100660000018B8F5001F0ED1DFF8688008F10C08FB
:10067000D8F8008048EA0008DFF8589009F10C0922
:10068000C9F800800DE0DFF84C8008F10C08D8F8BC
:10069000008028EA0008DFF83C9009F10C09C9F84D
:1006A00000805B1C102BFFF481AEBDE8F8870000D2
:1006B000000011100010024000080140000C014031
:1006C000001001400014014000180140001C0140CE
:1006D0000800014000040140024693680B400BB142
:1006E000012000E0002070470148006870470000CA
:1006F0000400002002480068401C0149086070475F
:100700000400002070B50446074800684FF47A7171
:10071000B0FBF1F5284600F0A8FF00222146501E4C
:1007200000F004F8002070BD000000202DE9F05F0B
:1007300080460D461646002701F06CFD07463946F7
:100740002A46334601F00700C0F1070ABAF1040F48
:1007500002D94FF0040A01E0C0F1070AD14600F1C6
:10076000040ABAF1070F02D24FF0000A01E0A0F12B
:10077000030AD4464FF0010A0AFA09FAAAF1010A5B
:100780000AEA020A0AFA0CFA4FF0010B0BFA0CFB08
:10079000ABF1010B0BEA030B4AEA0B04214640467E
:1007A00001F040FDBDE8F09F01200149086270475B
:1007B00000000E422DE9F04385B0064644A30FCB5E
:1007C00001AC0FC446A0006800904FF0000800255F
:1007D00000270024A146042E36D004DC012E3BD095
:1007E000022E6FD162E0082E32D0102E6AD13D4821
:1007F0004468006800F0807000B301A8C4F383412E
:10080000475C04F4803070B136484068C0F3404023
:100810001DF8008004F4803040B13348B0FBF8F09C
:1008200000FB07F502E0314807FB00F52D48406862
:1008300000F48000B0F5800F01D1A94603E0680004
:100840000321B0FBF1F93EE000F0E2F981463AE025
:1008500000F0DEF9814636E02248046A04F4407074
:10086000B0F5807F05D104F0020010B14FF40049CB
:100870001BE004F44070B0F5007F07D11948406ACE
:1008800000F0020010B149F640490EE004F4407057
:10089000B0F5407F07D11348006800F4003010B174
:1008A0004FF2244901E04FF000090CE000F0A0F9FC
:1008B0000C494968C1F38131491C4900B0FBF1F989
:1008C00001E0FFE700BF00BF484605B0BDE8F08388
:1008D00002030405060708090A0B0C0D0E0F101081
:1008E000010200000010024000127A0000093D00E1
:1008F000F8B5044600260025207800F00100002805
:100900006BD000274348C06900F0805070B900BF29
:100910004048C06940F080503E49C8610846C069FF
:1009200000F08050009000BF00BF01273A480068E7
:1009300000F48070B0B93848006840F480703649DF
:100940000860FFF7D1FE064606E0FFF7CDFE801BEC
:10095000642801D90320F8BD2F48006800F4807096
:100960000028F2D02B48006A00F440752DB3A0880F
:1009700000F44070A84220D02648006A20F4407558
:10098000012026490860002008602248056205F021
:10099000010090B1FFF7A8FE064608E0FFF7A4FEAD
:1009A000801B41F28831884201D90320D3E71948DE
:1009B000006A00F002000028F0D01648006A20F417
:1009C00040706168084313490862012F04D108464A
:1009D000C06920F08050C86100BF207800F002009C
:1009E000022807D10B48406820F44040A168084322
:1009F00008494860207800F01000102807D1054809
:100A0000406820F480006169084302494860002082
:100A1000A1E7000000100240007000404004424284
:100A200070B504460D4600266248006800F00700D5
:100A3000A8420ED25F48006820F0070028435D49B5
:100A400008600846006800F00700A84201D00120B5
:100A500070BD207800F00200022807D15648406897
:100A600020F0F000A168084353494860207800F066
:100A7000010000285DD06068012806D14E4800685A
:100A800000F4003090B90120E2E76068022806D146
:100A90004948006800F0007040B90120D8E7464896
:100AA000006800F0020008B90120D1E74248406820
:100AB00020F00300616808433F494860FFF714FED7
:100AC00006466068012810D108E0FFF70DFE801B84
:100AD00041F28831884201D90320B9E7364840689D
:100AE00000F00C000428F0D123E06068022810D147
:100AF00008E0FFF7F9FD801B41F28831884201D9F7
:100B00000320A5E72C48406800F00C000828F0D12D
:100B10000FE008E0FFF7E8FD801B41F288318842D2
:100B200001D9032094E72448406800F00C00002815
:100B3000F0D12048006800F00700A8420ED91D48F7
:100B4000006820F0070028431A490860084600683A
:100B500000F00700A84201D0012079E7207800F0DA
:100B60000400042807D11448406820F4E060E168DC
:100B7000084311494860207800F00800082808D18F
:100B80000D48406820F46050216940EAC1000A49DC
:100B9000486000F03DF808494968C1F30311074A6D
:100BA000515CC840064908600F20FFF7ABFD0020EC
:100BB0004EE700000020024000100240D42E000842
:100BC000000000200148006870470000000000207D
:100BD00000B5FFF7F7FF04494968C1F30221034A52
:100BE000515CC84000BD000000100240E42E000827
:100BF00000B5FFF7E7FF04494968C1F3C221034A82
:100C0000515CC84000BD000000100240E42E000806
:100C1000F0B585B00FF2700C9CE8E01001A8A0E8D8
:100C2000E0101DA52D68009500210024002200235E
:100C300000201A4D696801F00C05FDB1042D02D0A9
:100C4000082D1AD101E016481AE001ADC1F3834620
:100C5000AB5D01F480355DB1104D6D68C5F3404565
:100C60001DF805400E4DB5FBF4F505FB03F202E05F
:100C70000C4D03FB05F2104602E000BF084800BF20
:100C800000BF05B0F0BD0000020304050607080917
:100C90000A0B0C0D0E0F1010010200000010024094
:100CA00000127A0000093D00F8B5044600252078BE
:100CB00000F00100002878D0F848406800F00C00EF
:100CC00004280CD0F548406800F00C00082811D129
:100CD000F248406800F48030B0F5803F0AD1EF4818
:100CE000006800F4003000285FD0606800285CD104
:100CF0000120F8BD00BF6068B0F5803F06D1E7482D
:100D0000006840F48030E549086028E0606858B920
:100D1000E248006820F48030E04908600846006836
:100D200020F4802008601AE06068B0F5A02F0BD195
:100D3000DA48006840F48020D84908600846006816
:100D400040F4803008600AE0D448006820F4803025
:100D5000D24908600846006820F48020086000BF7F
:100D6000606888B1FFF7C0FC054606E0FFF7BCFCF1
:100D7000401B642801D90320BBE7C848006800F481
:100D800000300028F2D010E0FFF7AEFC054606E088
:100D9000FFF7AAFC401B642801D90320A9E7BF483C
:100DA000006800F400300028F2D1207800F0020042
:100DB000022857D1B948406800F00C0050B1B7483C
:100DC000406800F00C00082818D1B448406800F4CE
:100DD000803098B9B148006800F0020020B1206965
:100DE000012801D0012084E7AC48006820F0F80019
:100DF000616940EAC100A949086033E02069E8B1AF
:100E00000120A7490860FFF76FFC054606E0FFF7E1
:100E10006BFC401B022801D903206AE79F48006849
:100E200000F002000028F2D09C48006820F0F80092
:100E3000616940EAC1009949086013E000209849BF
:100E40000860FFF751FC054606E0FFF74DFC401B2C
:100E5000022801D903204CE79048006800F0020006
:100E60000028F2D1207800F0080008282DD1A069D0
:100E7000B8B101208B490860FFF736FC054606E053
:100E8000FFF732FC401B022801D9032031E78348D9
:100E9000406A00F002000028F2D0012001F0D8F9E9
:100EA00013E000207F490860FFF71EFC054606E0BE
:100EB000FFF71AFC401B022801D9032019E77748E5
:100EC000406A00F002000028F2D1207800F004000F
:100ED000042873D100267148C06900F0805070B9B1
:100EE00000BF6E48C06940F080506C49C861084638
:100EF000C06900F08050009000BF00BF01266A4822
:100F0000006800F48070B0B96748006840F48070F1
:100F100065490860FFF7E8FB054606E0FFF7E4FBDC
:100F2000401B642801D90320E3E65F48006800F411
:100F300080700028F2D000BFE068012806D1574831
:100F4000006A40F001005549086227E0E06858B99E
:100F50005248006A20F00100504908620846006AC1
:100F600020F00400086219E0E06805280BD14B4826
:100F7000006A40F00400494908620846006A40F0EF
:100F8000010008620AE04548006A20F00100434978
:100F900008620846006A20F00400086200BFE068AA
:100FA000A0B1FFF7A1FB054609E0FFF79DFB401B41
:100FB00041F28831884202D903209AE622E037487C
:100FC000006A00F002000028EFD012E0FFF78CFB6F
:100FD000054608E0FFF788FB401B41F28831884254
:100FE00001D9032085E62D48006A00F002000028A0
:100FF000F0D1012E05D12948C06920F08050274941
:10100000C86100BFE069C8B32448406800F00C0024
:10101000082860D0E069022848D1002020490866ED
:10102000FFF762FB054606E0FFF75EFB401B022868
:1010300001D903205DE61948006800F0007000281F
:10104000F2D1206AB0F5803F07D11448406820F4FF
:101050000030A168084311494860D4E908010843F9
:101060000E49496821F4741108430C494860012075
:101070000B490866FFF738FB054607E02DE0FFF750
:1010800033FB401B022801D9032032E603480068E5
:1010900000F000700028F2D01FE0000000100240B5
:1010A00000004242800442420070004000200C498F
:1010B0000866FFF719FB054606E0FFF715FB401B26
:1010C000022801D9032014E60648006800F00070E9
:1010D0000028F2D101E001200BE6002009E6000023
:1010E000000042420010024010B5034600200348B1
:1010F00000EB810094B2046010BD0000006C004061
:101100002DE9F04780460C46914600250026AA4668
:101110000027B8F1000F00D014B90120BDE8F08716
:10112000D8F800004068C0F3800008B10120F5E75E
:10113000404601F073F905464FF46160B5FBF0F7E6
:10114000B5FBF0F100FB11503C21B0FBF1F06070F9
:101150004FF46160B5FBF0F100FB11503C21B0FB96
:10116000F1F201FB1200A070182F39D31820B7FB41
:10117000F0FAB7FBF0F100FB11702070404601F06F
:1011800041F90646701C18B1AE4201D9761B01E048
:101190004FF0FF360AEB4A00C000C0EB4011C1EB34
:1011A0000020A5EB00152946404601F0AAF908B138
:1011B0000120B3E7701C38B12E443146404601F09F
:1011C00089F940B10120A9E73146404601F082F992
:1011D00008B10120A2E75146404601F065F800E061
:1011E0002770B9F1000F0BD0207801F050F8207073
:1011F000607801F04CF86070A07801F048F8A070B9
:1012000000208BE770B5044600250CB9012070BDA5
:10121000607C20B900202074204600F05BF802209A
:101220006074204600F01EF918B10420607401209B
:10123000EDE7204601F093F818B104206074012016
:10124000E5E72068406820F0070021684860A06852
:1012500028B11F48006820F001001D4908601C48A3
:10126000001F006820F46070A16808431849091F36
:1012700008606068401C08B1656809E00120FFF75C
:1012800099FA05461DB9042060740120BFE76D1E60
:101290002068806820F00F0040EA154021688860CF
:1012A0002068C06865F30F002168C860204601F01F
:1012B00073F818B1042060740120A8E70021E173DD
:1012C00001216173A1730120607400209FE7000079
:1012D000306C004010B592B0044600BF1C48C06995
:1012E00040F080501A49C8610846C06900F080503B
:1012F000019000BF00BFFFF757FA00BF1448C06954
:1013000040F000601249C8610846C06900F0006002
:10131000019000BF00BF0420089000200F90012022
:101320000B9008A8FFF7C0FC10B10AA001F01EFC4A
:10133000012002900002039002A8FFF7D9FA10B131
:1013400009A001F013FC01200E49086012B010BD85
:10135000001002400A0D2052544320C5E4D6C3CAEF
:10136000A7B0DC200D0A00000A0D2052544320CA09
:10137000B1D6D3B3F5CABCBBAFCAA7B0DC200D0A47
:10138000000000003C0442422DE9F04704460D46AF
:1013900090460026002704B115B90120BDE8F0876A
:1013A00000BF207C012801D10220F7E70120207432
:1013B00000BF02206074B8F1000F0BD128784FF401
:1013C000616148436978C1EB011100EB8100A978A4
:1013D000461812E0287800F04FFF4FF4616100FBDF
:1013E00001F9687800F048FFC0EB001009EB8009B4
:1013F000A87800F041FF09EB00063146204601F0D5
:1014000080F838B10420607400BF0020207400BF51
:101410000120C3E72068406820F00500216848608B
:10142000204600F0EFFF0746781C80B1B7420ED28D
:101430000B4807443946204601F04CF838B10420E7
:10144000607400BF0020207400BF0120A6E70120C7
:10145000607400BF0020207400BF00BF9EE7000042
:101460008051010070B5044600250CB9012070BD03
:101470002068406820F0080021684860FFF734F9D0
:10148000054607E0FFF730F9401BB0F57A7F01D938
:101490000320ECE72068406800F008000028F1D045
:1014A0000020E4E710B504460CB9012010BDA06A85
:1014B000B0F5005F00D100BF94F8510010B920468C
:1014C00000F03AF8022084F851002068006820F00B
:1014D000400021680860D4E901010843E16808433D
:1014E0002169084361690843218B01F400710843B5
:1014F000E1690843216A0843A16A0843216808603A
:101500000421A06901EA1040616A0843216848602B
:101510002168E06A08612068C06920F400602168E1
:10152000C8610020034908706065012084F85100FB
:101530000020BBE70800002010B586B0044600BFBD
:101540003048806940F004002E498861084680696F
:1015500000F00400019000BF00BF00BF0846806992
:1015600040F0040088610846806900F004000190A2
:1015700000BF00BF00BF0846806940F004008861DA
:101580000846806900F00400019000BF00BF00BF62
:101590000846806940F0100088610846806900F0C4
:1015A0001000019000BF00BF00BF0846806940F4F2
:1015B000805088610846806900F48050019000BF27
:1015C00000BF2020029002200390012004900320FD
:1015D000059002A90C48FEF7DFFE4020029002A908
:1015E0000948FEF7D9FE8020029002A90648FEF7BE
:1015F000D3FE01200290039002A90448FEF7CCFE1E
:1016000006B010BD0010024000080140001001406B
:1016100070B504460E4615460CB9012070BD94F80D
:101620003D0028B9002084F83C00204600F01CF85A
:1016300004F108012068FEF70FFE3146A268206819
:10164000FEF75EFE2946236BD4E90102FEF7E2FDB8
:10165000A168206850F8210040F00100A2682168CC
:1016600041F822000020D9E7704770B504462546AE
:10167000681EB0F1807F01D301200FE0681E4FF09B
:10168000E02148610F214FF0FF3000F0CBFD00203A
:101690004FF0E021886107200861002070BD10B57F
:1016A00004460CB9012010BDA06900B100E000BFE4
:1016B00094F8390028B9002084F83800204600F05A
:1016C00027F8242084F839002068C06820F40050EE
:1016D0002168C860204601F03FF82068006920F4C6
:1016E0009040216808612068406920F02A00216844
:1016F00048612068C06840F400502168C86000203C
:10170000E063202084F8390084F83A000020CAE71A
:1017100010B586B0044600BF1E48806940F4804082
:101720001C4988610846806900F48040019000BF30
:1017300000BF00BF0846806940F004008861084689
:10174000806900F00400019000BF00BF00BF0846A0
:10175000806940F0040088610846806900F0040058
:10176000019000BF00BF48150290022003900120A5
:1017700004900320059002A90748FEF70DFE4FF4E0
:10178000806002900020039002A90348FEF704FE47
:1017900006B010BD00100240000801402DE9F843DA
:1017A00004460D4616461F464FF0000994F83900CE
:1017B00020285CD105B116B90120BDE8F88300BF2F
:1017C00094F83800012801D10220F6E7012084F8BE
:1017D000380000BF0020E063212084F83900FEF7C4
:1017E00083FF8146A684E6842BE0E08C401EE084E3
:1017F000A068B0F5805F16D14B46002280212046BC
:10180000009701F08DF808B10320D6E7A846B8F894
:101810000000C0F3080021684860206908B9AD1CC9
:101820000FE06D1C0DE04B46002280212046009702
:1018300001F076F808B10320BFE715F8010B216825
:101840004860E08C0028D0D14B4600224021204641
:10185000009701F065F808B10320AEE7202084F876
:10186000390000BF002084F8380000BFA5E702203F
:10187000A3E700BFFEE7000020B14FF08051044A0B
:10188000116003E04FF48051014A1160704700007D
:10189000101401402DE9F04106460F4614461D463E
:1018A0002B4622463946304600F0E2F904FB05F0AB
:1018B0000249098800F0FCF8BDE8F0813A000020F8
:1018C00001B502E00098401E009000980028F9D170
:1018D00008BD00002DE9F04F8FB00646884614463B
:1018E0009946DDE9185B274669E0304638443749B8
:1018F0000988884204DD002608EB09001FFA80F8F9
:101900004046484432490988884201DD0026B046F5
:101910002878802825DD2746B5F800A04FEA0A2060
:1019200000EB2A201FFA80FA514605A8FEF70AFDAF
:10193000012105AA0E984B46CDE9002002913A46B6
:101940001021084600F0FAFA22484B463A46414632
:10195000CDE9000B304600F041F8F01986B2AD1C1D
:101960002DE0204604EBD071C1F34F0728782038D2
:10197000C0B20D9000231848C288DDE90D01504324
:10198000154A92885043C217049000EB5270124AD5
:10199000126802EBE0008DE80B004B463A46182136
:1019A000102000F0CBFA0B484B463A464146CDE9B1
:1019B000000B304600F012F8F01986B26D1C287842
:1019C000002892D10FB0BDE8F08F00002C0000205D
:1019D0002E00002004010020180000202DE9F05FF7
:1019E00081468A4614461D46DDE90A6B0027B84643
:1019F0002B4622465146484600F03AF92C2000F08A
:101A000093FA00BF14E04FF000080EE016F8011B37
:101A1000594504D10848008800F08AFA03E00748D5
:101A2000008800F085FA08F10108A045EED37F1C7C
:101A3000AF42E8D3BDE8F09F3A0000203800002014
:101A400010B54FF020401749086017484860002043
:101A5000164908604860082088600020C860086156
:101A600048614FF08050886100200E498860002155
:101A70000C48C16008210161102141610021816190
:101A8000C16141624FF4805181620021C1620163F2
:101A90004163816300F01CF8044A11460148FFF7D6
:101AA000B7FD10BDA4000020040100A0E800002044
:101AB00070B504460D4600262C2000F035FA00BF14
:101AC00003E0284600F034FA761CA642F9D370BD34
:101AD00000B585B000BF2B48806940F0200029493F
:101AE00088610846806900F02000009000BF00BFB8
:101AF00000BF0846806940F0400088610846806960
:101B000000F04000009000BF00BF00BF08468069A1
:101B100040F0800088610846806900F080000090F5
:101B200000BF00BF00BF0846406940F480704861B4
:101B30000846406900F48070009000BF00BF01209B
:101B400002900390032004908814019001A90E488C
:101B5000FEF722FC0220019001A90C48FEF71CFCB4
:101B6000022002904CF6B370019001A90648FEF7DE
:101B700013FC4FF68070019001A90448FEF70CFC9D
:101B800005B000BD001002400014014000180140E3
:101B900010B50446072C00DD10BD2848047020460F
:101BA00004EBD0714910A4EB410139B9F02024496C
:101BB00008804FF4A0702349088006E04FF4A0701D
:101BC0001F490880F0201F490880362000F0ACF93A
:101BD000082141EA441000F0ABF92A2000F0A4F9F2
:101BE000002000F0A5F9002000F0A2F914490988AE
:101BF000491EC1F3072000F09BF911490978491EDD
:101C0000C8B200F095F92B2000F08EF9002000F00A
:101C10008FF9002000F08CF90A490988491EC1F3A8
:101C2000072000F085F907490978491EC8B200F07D
:101C30007FF92C2000F078F900BFADE730000020DC
:101C40002C0000202E00002010B5FFF741FFFFF709
:101C5000F7FE0120FFF710FE00F052F900F038F80F
:101C600002480078FFF794FF10BD0000300000200C
:101C70002DE9F04104460D4616461F462A2000F085
:101C800053F9201200F054F9E0B200F051F9A11913
:101C9000491EC1F30F2000F04BF9A119491EC8B22B
:101CA00000F046F92B2000F03FF9281200F040F92F
:101CB000E8B200F03DF9E919491EC1F30F2000F028
:101CC00037F9E919491EC8B200F032F9BDE8F081D0
:101CD00010B5CF2000F028F9002000F029F981206C
:101CE00000F026F9302000F023F9ED2000F01CF977
:101CF000642000F01DF9032000F01AF9122000F012
:101D000017F9812000F014F9E82000F00DF9852082
:101D100000F00EF9102000F00BF9782000F008F91F
:101D2000CB2000F001F9392000F002F92C2000F05E
:101D3000FFF8002000F0FCF8342000F0F9F8022051
:101D400000F0F6F8F72000F0EFF8202000F0F0F8AF
:101D5000EA2000F0E9F8002000F0EAF8002000F0A6
:101D6000E7F8B12000F0E0F8002000F0E1F81B20D7
:101D700000F0DEF8B62000F0D7F80A2000F0D8F81E
:101D8000A22000F0D5F8C02000F0CEF8352000F0F9
:101D9000CFF8C12000F0C8F8112000F0C9F8C52024
:101DA00000F0C2F8452000F0C3F8452000F0C0F86C
:101DB000C72000F0B9F8A22000F0BAF8F22000F035
:101DC000B3F8002000F0B4F8262000F0ADF80120B0
:101DD00000F0AEF8E02000F0A7F80F2000F0A8F81F
:101DE000262000F0A5F8242000F0A2F80B2000F037
:101DF0009FF80E2000F09CF8092000F099F854207C
:101E000000F096F8A82000F093F8462000F090F833
:101E10000C2000F08DF8172000F08AF8092000F05F
:101E200087F80F2000F084F8072000F081F80020E8
:101E300000F07EF8E12000F077F8002000F078F85C
:101E4000192000F075F81B2000F072F8042000F053
:101E50006FF8102000F06CF8072000F069F82A20D5
:101E600000F066F8472000F063F8392000F060F8D1
:101E7000032000F05DF8062000F05AF8062000F07C
:101E800057F8302000F054F8382000F051F80F20B7
:101E900000F04EF8362000F047F8C82000F048F86F
:101EA0002A2000F041F8002000F042F8002000F065
:101EB0003FF8002000F03CF8EF2000F039F82B202C
:101EC00000F032F8002000F033F8002000F030F885
:101ED000012000F02DF83F2000F02AF83A2000F011
:101EE00023F8552000F024F8112000F01DF80348D5
:101EF000FFF7E6FC292000F017F810BDFCBF020038
:101F000010B54FF400300749086040F6FF20FFF796
:101F1000D7FC02200349086040F6FF20FFF7D0FC01
:101F200010BD0000101801404FF0C04108807047FC
:101F30000149088070470000000002602DE9FC4F55
:101F40000C461E464FEA004A9AFBF2FA0AF1010AD1
:101F5000CDF804A04FEA044A9AFBF6FA0AF1010A06
:101F6000CDF800A04FF00009202801DBBDE8FC8F70
:101F700000FB04FABAF1000F00D1F7E700FB04FA06
:101F8000BAF5806F00DBF1E702FB06FABAF1000F49
:101F900000D1EBE702FB06FABAF5804F00DBE5E77C
:101FA000454BDDF834A0BAF1000F2BD100211FE022
:101FB000002517E0DDF82CA01AF801A04FF0800BE7
:101FC0004BFA05FB0AEA0B0ABAF1000F02D04FF0F8
:101FD000010A01E04FF0000A03F801AB05F1010A24
:101FE0001FFA8AF5082DE5DB01F1010A1FFA8AF1D3
:101FF00004FB00FA4FEAEA7B0AEB5B7BB1EBEB0FE9
:10200000D6DB2AE000211FE0002517E0DDF82CA038
:102010001AF801A04FF0800B4BFA05FB0AEA0B0AF5
:10202000BAF1000F02D04FF0010A01E04FF0000AB0
:1020300003F801AB05F1010A1FFA8AF5082DE5DB6B
:1020400001F1010A1FFA8AF104FB00FA4FEAEA7B68
:102050000AEB5B7BB1EBEB0FD6DB174B174F4FF067
:10206000000C1AE04FF0000A4FEA194B00FB0B3E40
:10207000D0460AE00EEB1A4B9BF800B007F808B008
:10208000DDF804B0DA4408F101089045F2D3DDF838
:1020900000B0D94417440CF1010CB445E2D3DFF889
:1020A0001CA0CDF830A0DDF830A00AF1010ACDF86F
:1020B00030A000BF5AE700000441002004010020C6
:1020C00000B585B000BF1648806940F0040014498F
:1020D00088610846806900F00400009000BF00BFDE
:1020E00000BF0846806940F010008861084680699A
:1020F00000F01000009000BF00BF01200190002000
:102100000290039001A90748FEF746F94FF40050EA
:10211000019001A90448FEF73FF905B000BD000099
:1021200000100240000801400010014070B5044654
:102130000D4629462046FEF7CFFA012808D100BFF8
:1021400029462046FEF7C8FA0128F9D0012070BDC3
:102150000020FCE7014908607047000034000020BF
:1021600001490880704700003800002000B585B0A4
:1021700000BF2448806940F0080022498861084671
:10218000806900F00800009000BF00BF00BF084653
:10219000806940F0080088610846806900F0080006
:1021A000009000BF00BF00BF0846806940F00800F3
:1021B00088610846806900F00800009000BF00BFF9
:1021C000202001900120029003900320049001A997
:1021D0000D48FEF7E1F80120019001A90A48FEF739
:1021E000DBF80220019001A90748FEF7D5F820206E
:1021F000054910310860012008600220086005B020
:1022000000BD000000100240000C014000BFFEE7CE
:102210007047000002480068C0F3022070470000C9
:102220000CED00E010B5002807DA0A07140E054A85
:1022300000F00F031B1FD45403E00A07130E024AD9
:10224000135410BD18ED00E000E400E070470000FA
:1022500008B508490968C9084FF47A72B1FBF2F170
:102260004143009100BF00BF00994A1E009200291F
:10227000F9D108BD00000020014600BF080900EBAD
:102280008000420001F00F001044C0B270470146C8
:10229000002203E0521CA1F10A00C1B20A29F9D2BE
:1022A000100741EA106070472DE9F047064688465E
:1022B000002700240025A146F77B747BB57B00BF77
:1022C00040E0012C0BD0032C09D0052C07D0072CA3
:1022D00005D0082C03D00A2C01D00C2C0CD11F2DBA
:1022E00001D26D1C2CE00C2C02D0641C012527E0CF
:1022F000012401257F1C23E0042C05D0062C03D0EB
:10230000092C01D00B2C06D11E2D01D26D1C17E01B
:10231000641C012514E0022C12D11C2D01D26D1C6D
:102320000EE01C2D08D1B8B200F053F808B16D1CB6
:1023300006E0641C012503E01D2D01D1641C01256C
:1023400009F10109C145BCD3F7737473B573EAB2DF
:10235000E1B2384600F07CF83073BDE8F08770B524
:1023600004460025FEF7C0F9054607E0FEF7BCF974
:10237000401BB0F57A7F01D9032070BD206840680A
:1023800000F020000028F1D02068406840F01000E4
:10239000216848600020F0E770B5044600252068F9
:1023A000406820F0100021684860FEF79DF905465E
:1023B00007E0FEF799F9401BB0F57A7F01D90320B9
:1023C00070BD2068406800F020000028F1D0002097
:1023D000F6E7014601F0030008B1002070476420D1
:1023E000B1FBF0F200FB121008B10120F6E74FF448
:1023F000C870B1FBF0F200FB121008B90120EDE744
:102400000020EBE70146002200230868006A82B240
:102410000868406A83B243EA0240704730B501461B
:1024200000220023002400200D68AD69AAB20D68C7
:10243000ED69ACB20D68AD69ABB29A4205D00D68DA
:10244000ED6963F31F45284601E044EA024030BDD0
:10245000F0B504460B460021002504F5FA61032B74
:102460001BD2C3EBC30000EB03100926B0FBF6F050
:102470001044001D4618481E06EB90066427B0FB6A
:10248000F7F0361A481EBF00B0FBF7F030440726BD
:10249000B0FBF6F706FB17051AE0C3EBC30000EB31
:1024A00003100926B0FBF6F01044001D084400EBB1
:1024B00091006426B1FBF6F6801B4FF4C876B1FBA1
:1024C000F6F63044801E0726B0FBF6F706FB17052C
:1024D000E8B2F0BD70B504460D4600262046FFF771
:1024E0003EFF08B101260AE0280C21680862A8B264
:1024F000216848622046FFF74FFF00B101263046B1
:1025000070BD70B504460D4600262046FFF727FF34
:1025100008B101260AE0280C21688861A8B2216868
:10252000C8612046FFF738FF00B10126304670BD74
:1025300070B505460C4616464FF480300F490861C9
:10254000032000F04BF8C4F3074000F047F8C4F351
:10255000072000F043F8E0B200F040F804E0FF206C
:1025600000F03CF828706D1C301EA6F101018EB2FF
:10257000F5D101200149086170BD00000010014043
:1025800010B514481449086008211348C16100219E
:1025900081600121416102210161002181620721E5
:1025A000C1620021C16001624FF4007181610021AC
:1025B00041624FF48270084948600846FEF772FF96
:1025C00005480068006840F0400003490968086059
:1025D00010BD0000003001404C00002010B5044642
:1025E0004FF48050194908600AE018490868411EF4
:1025F000164A116020B9002000F02CF8C0B210BDBE
:10260000134800688068C0F340000028EDD01048EF
:102610000068C4604FF480500C4908600AE00B4920
:102620000868411E094A116020B9012000F012F823
:10263000C0B2E4E706480068806800F001000028A6
:10264000EDD003480068C068C0B2D8E70C00002095
:102650004C00002010B50446214602A000F086FA86
:10266000002010BD3C3C2D464C4153482D45525254
:102670004F522D3E3E2053504920B5C8B4FDB3AC57
:10268000CAB1216572726F72436F6465203D202567
:10269000640A0000704710B5FEF72CF810BD00B5B5
:1026A0008FB014210AA8FDF768FD28216846FDF7C0
:1026B00064FD01200090000401900020029002209F
:1026C0000790C10308914FF4E01109916846FEF7A5
:1026D000EBFA08B100BFFEE70F200A9002200B9032
:1026E00000200C900E904FF480600D9002210AA8FB
:1026F000FEF796F908B100BFFEE70FB000BD00007D
:102700001148006840F001000F4908600846406821
:102710000E4908400C494860084600680C490840CA
:10272000094908600846006820F4802008600846CF
:10273000406820F4FE0048604FF41F008860C80322
:102740000449086070470000001002400000FFF8D4
:10275000FFFFF6FE08ED00E02DE9F04104460025FC
:102760002068006920F44050E1680843216808614E
:102770002169A06808436169084305432068C0686F
:1027800041F20C61884328432168C8602068406991
:1027900020F44070A1690843216848615F492068BE
:1027A00088425CD1FEF724FA00EBC00101EB001077
:1027B00061688900B0FBF1F6FEF71AFA00EBC00180
:1027C00001EB001061688900B0FBF1F06421B0FBFF
:1027D000F1F000EBC00101EB0010A6EB800032210C
:1027E00001EB00106421B0FBF1F000F0F006FEF701
:1027F000FFF900EBC00101EB001061688900B0FB3C
:10280000F1F06421B0FBF1F006EB0016FEF7F0F9F1
:1028100000EBC00101EB001061688900B0FBF1F72B
:10282000FEF7E6F900EBC00101EB001061688900DA
:10283000B0FBF1F06421B0FBF1F000EBC00101EB63
:102840000010A7EB8000322101EB00106421B0FBE7
:10285000F1F000F00F003044216888605BE0FEF783
:10286000B7F900EBC00101EB001061688900B0FB13
:10287000F1F6FEF7ADF900EBC00101EB0010616865
:102880008900B0FBF1F06421B0FBF1F000EBC00176
:1028900001EB0010A6EB8000322101EB0010642157
:1028A000B0FBF1F000F0F006FEF792F900EBC0018A
:1028B00001EB001061688900B0FBF1F06421B0FB0E
:1028C000F1F006EB0016FEF783F900EBC00101EB17
:1028D000001061688900B0FBF1F7FEF779F900EBB1
:1028E000C00101EB001061688900B0FBF1F06421C8
:1028F000B0FBF1F000EBC00101EB0010A7EB800092
:10290000322101EB00106421B0FBF1F000F00F0068
:10291000304421688860BDE8F08100000038014043
:102920002DE9F04104460D4617469846069E21E0E3
:10293000701CF8B12EB1FDF7D7FEA0EB0800B04235
:1029400018D92068C06820F4D0702168C860206859
:10295000406920F0010021684861202084F8390096
:1029600084F83A0000BF002084F8380000BF03203C
:10297000BDE8F081206800682840A84201D101200C
:1029800000E00020B842D3D00020F1E70020074942
:1029900009680968C1F3401131B1044909684968FF
:1029A000C8B2024909684860704700001845002015
:1029B00000BFFEE730B59BB004460D462B462246CD
:1029C0000CA102A800F0E2F8002002A97D231A461B
:1029D000CDE9001005210846FEF77CFF002008A184
:1029E00014231A46CDE90010D4210520FEF772FF0A
:1029F0001BB030BD25302E32643A25302E326400B3
:102A00006D696E75746573206368616E676500003B
:102A10000448006808B9012000E00020014908606E
:102A2000704700003C00002038B505460C460022E7
:102A300069460548FEF764FB9DF8000028609DF894
:102A40000100206038BD00000445002001683B29DA
:102A500003DA0168491C016001E000210160704750
:102A600001460A2091FBF0F200FB121291FBF0F0FC
:102A700002EB00107047000030B59DB005460C46D3
:102A8000E0B28DF80D00E8B28DF80C009DF80D3025
:102A90009DF80C2010A104A800F078F8002004A9EB
:102AA0007D231A46CDE9001065210520FEF712FFAF
:102AB0002046FFF7D5FFC0B28DF80D00012203A913
:102AC0000848FEF761FC43F2F22201210548FEF7B7
:102AD0000BFB1DB030BD000025302E32643A25308E
:102AE0002E3264000445002010B59CB00024002262
:102AF00002A91248FEF704FB9DF80A00A04218D074
:102B00009DF809209DF808100DA000F02FF89DF801
:102B100009309DF8082012A103A800F037F8002022
:102B200003A97D231A46CDE9001005210846FEF7CA
:102B3000D1FE9DF80A401CB010BD000004450020E5
:102B40005468652054696D65203A202025302E3266
:102B5000643A25302E3264200D0A0D0A0000000070
:102B600025302E32643A25302E3264000FB4054BE6
:102B700010B503A9044A029800F02CF810BC5DF8C7
:102B800014FB0000352D0008480000200FB4084B4E
:102B900010B504A902AA039800F01CF8044602A983
:102BA000002000F0C1F8204610BC5DF814FB0000C6
:102BB000292D000802E008C8121F08C1002AFAD116
:102BC00070477047002001E001C1121F002AFBD1AD
:102BD000704700002DE9FF4F89B09B460446002551
:102BE00006E025280BD05A460B999047641C6D1CB3
:102BF00020780028F5D10DB02846BDE8F08F0027D9
:102C0000B8460122474900E0074314F8013F203B42
:102C100002FA03F00842F7D120782E2819D114F8CF
:102C2000010F47F004072A280ED06FF02F022078FA
:102C3000A0F1300109290CD808EB880102EB410111
:102C400000EB0108641CF2E70A98641C50F8048B3E
:102C50000A9020780028CED0642808D0692806D0B1
:102C600075281ED05A460B9990476D1C58E00A995A
:102C70004FF00A0901C90A91002802DA40422D21C9
:102C800002E0390504D52B218DF82010012103E045
:102C9000F90704D02021F7E78A4608AE0DE00021AD
:102CA000FAE70A994FF00A0901C90A91F7E749467C
:102CB000FDF76EFA303106F8011D0028F7D1ADEBB3
:102CC000060000F12009780701D44FF00108C8453B
:102CD00002DDA8EB090000E000208046002706E0A6
:102CE00008A85A46C05D0B9990476D1C7F1C57453C
:102CF000F6DB04E030205A460B9990476D1CB8F182
:102D00000001A8F10108F5DC05E016F8010B5A46B0
:102D10000B9990476D1CB9F10001A9F10109F4DC90
:102D2000641C65E7092801000A68531C0B601070D9
:102D30007047000013B50C464FF47A7301226946C0
:102D40000248FEF72BFD00981CBD0000184500202E
:102D5000FFF7A5FCFFF70AFAFDF744FA38A0FFF7E2
:102D600005FFFEF771FF0320FEF712FF3B483C49C9
:102D700008604FF0FF3048600846FEF743FA18B18C
:102D800038A0FFF7F3FE13E03B48406A00F0006014
:102D900018B13AA0FFF7EAFE07E03748406A00F0B2
:102DA000806010B13BA0FFF7E1FE01203F490860C1
:102DB000FFF786F93E48FFF7CDF94FF6FF70FFF7B2
:102DC000CFF93C4803883C48028800210846FEF7BA
:102DD00061FD34E03948006810B9FFF785FE18E05E
:102DE00036480068012814D141033548FFF79EF9A1
:102DF000012808D13348FFF729FE324801683248DC
:102E00000068FFF739FE2F4801682F480068FFF778
:102E1000D1FD01212D48FFF789F901280FD12C4858
:102E2000006880F020002A490860FFF7F1FD234880
:102E30000068012803D123492348FFF7F5FDC9E7BE
:102E40000A0DD5E2CAC7D2BBB8F6525443C8D5C0A2
:102E5000FACAB5D1E9200D0A0000000000280040A0
:102E6000044500200D0A20525443B3F5CABCBBAF41
:102E7000CAA7B0DC0D0A0000001002400D0A20B7FE
:102E8000A2C9FAB5E7D4B4B8B4CEBB2E2E2E2E0DFF
:102E90000A0000000D0A20B7A2C9FACDE2B2BFB8FD
:102EA000B4CEBB2E2E2E2E0D0A000000E0044242AE
:102EB000100000202E0000202C0000203C000020EC
:102EC00000100140400000204400002000080140A4
:102ED0000C0C01400000000000000000010203048F
:102EE00006070809000000000102030400000000BA
:102EF00000000000000000000000000000000018BA
:102F000018181818180800081800000000000034ED
:102F10002424240000000000000000000000000045
:102F200016247F2424247E242400000000000008AE
:102F30003E6848681C1612127C10100000000061E8
:102F4000D296740810162949C6000000000000003F
:102F50003C646438724ACE467F00000000000018CE
:102F60001818180000000000000000000000000415
:102F7000081810303030301010180C0400000020F9
:102F80001008080C0404040C0818102000000008A5
:102F90000A341C6A08000000000000000000000065
:102FA00000001818187F1818180000000000000012
:102FB00000000000000000181808300000000000A9
:102FC00000000000003C00000000000000000000C5
:102FD00000000000000000181800000000000002BF
:102FE00006040C080810102020400000000000001B
:102FF0003C6642475B7342663C00000000000000F4
:1030000018784808080808087E0000000000000042
:103010003C460606040810207E0000000000000068
:103020007C0606043C0202067C0000000000000052
:103030000C1C14246444FF04040000000000000081
:103040007E6060607E0202067C00000000000000DE
:103050001E306048764242623C00000000000000E2
:103060007E0206040C08181030000000000000006A
:103070003C6242361C6642423C00000000000000F8
:103080003C664242661A020478000000000000001C
:1030900000001818000000181800000000000000D0
:1030A0000000181800000018180830000000000088
:1030B000000004183060100C060000000000000042
:1030C000000000007E007E00000000000000000004
:1030D0000000301804060C10200000000000003032
:1030E0001C06060618100010100000000000001C4E
:1030F000224141DDB5A5A5AF94C0403C00000000D1
:10310000181C342426627E43C10000000000000029
:103110007C4642467C4242427C00000000000000A7
:103120001E204040404040603E0000000000000083
:103130007C464243434342467800000000000000C2
:103140007E6060607E6060607E00000000000000C5
:103150007E6060607E6060606000000000000000D3
:103160001E604040CE4242623E000000000000006F
:10317000424242427E4242424200000000000000C1
:103180007E181818181818187E000000000000009B
:103190007C040404040404447800000000000000DF
:1031A0004244485070584C44420000000000000067
:1031B00020202020202020203E00000000000000D1
:1031C0006266675F5B5BC1C1C10000000000000078
:1031D000626272525A4A4E464600000000000000E9
:1031E0003C6243C3C3C343623C00000000000000D4
:1031F0007C4642424678404040000000000000000B
:103200003C6243C3C3C343623C180F00000000008C
:103210007C6662667C6C64666200000000000000F0
:103220003E6040601C0602027C00000000000000BE
:103230007F1818181818181818000000000000004F
:1032400042424242424242623C0000000000000012
:10325000C14342622624341C180000000000000014
:10326000C1C141495B5B766666000000000000005A
:1032700043663418181C2466C300000000000000D8
:10328000C14266341C181818180000000000000025
:103290007E02040C181020607E0000000000001C5C
:1032A00010101010101010101010101C0000004012
:1032B0002020101008080C04060200000000003C4A
:1032C0000C0C0C0C0C0C0C0C0C0C0C3C000000003E
:1032D000181C246200000000000000000000000034
:1032E0000000000000000000000000FF00000020BF
:1032F00010000000000000000000000000000000BE
:1033000000003C06023E42467A00000000000040F9
:1033100040405C62424242427C00000000000000EB
:1033200000001E20604060203E00000000000002FF
:1033300002023E62424242663A0000000000000083
:1033400000003C62427E40603E0000000000000F32
:103350001810107E10101010100000000000000067
:1033600000003F66426658403E43423C0000004039
:1033700040405C62424242424200000000000018AD
:1033800018007808080808087E0000000000000403
:103390000C007C040404040404040C7800000060A5
:1033A0006060626C78706864620000000000007801
:1033B00008080808080808087E000000000000004F
:1033C0000000764B4B4B4B4B4B00000000000000C5
:1033D00000005C62424242424200000000000000E5
:1033E00000003C62424342623C00000000000000DA
:1033F00000005C62424242427C40404000000000CB
:1034000000003E62424242663A02020200000000B0
:1034100000006E72636060606000000000000000E9
:1034200000003E20203C06027C000000000000005E
:103430001010FE10101010101E0000000000000000
:1034400000004242424242663A0000000000000092
:1034500000004342662434181800000000000000F9
:103460000000C1C15B5A5E666600000000000000FB
:10347000000062261C181C266200000000000000EC
:10348000000043426624341C181830E0000000009D
:1034900000007E060C1810207E0000000000000EC8
:1034A00018101010307010101010180E00000808BE
:1034B000080808080808080808080808000000307C
:1034C000180808080C0E080808081830000000004A
:1034D00000000000714B060000000000000000002A
:1034E00000000000000000000000000000000000DC
:1034F00000000000000000000000000000000000CC
:1035000000000000000000000000000000000000BB
:103510000000000000000380018001800180018024
:10352000018001800180018001800000000003C053
:1035300003C00000000000000000000000000000C8
:103540000000000000000E700E700E700C300000C5
:10355000000000000000000000000000000000006B
:10356000000000000000000000000000000000005B
:1035700000000000000000000618063806307FFE3C
:103580000C300C300C300C307FFE0C601C6018606E
:1035900018600000000000000000000000000000B3
:1035A0000000000000C000C00FF83CC831C03180EE
:1035B0003D801F8003F001F8031C030C031C3FF83F
:1035C0003FE00700060000000000000000000000CF
:1035D000000000001C007E0E630C631863307E60E8
:1035E00000C001800300077C0EE61CC618C630C66A
:1035F000607C0000000000000000000000000000EF
:103600000000000000000FE01CF0387038701C60F3
:103610001FC00F003F8C71CC60EC607C70383CFCAC
:103620001FCE0000000000000000000000000000AD
:1036300000000000000003C0018001800180000044
:10364000000000000000000000000000000000007A
:10365000000000000000000000000000000000006A
:1036600000000000003000E001C0018003000700FE
:10367000060006000E000E000E000E0006000700F9
:103680000300038001C000E00030000000000000E3
:10369000000000000C0006000380018001C000E073
:1036A000006000600070007000700060006000E06A
:1036B00000C00180038006000C0000000000000034
:1036C000000000000000018011881DB803C007E061
:1036D0003DBC0188018000000000000000000000E7
:1036E00000000000000000000000000000000000DA
:1036F00000000000000000000000000001800180C8
:103700000180018001807FFE0180018001800180B5
:1037100000000000000000000000000000000000A9
:103720000000000000000000000000000000000099
:1037300000000000000000000000000003C003C003
:1037400001C001C003801F00000000000000000055
:103750000000000000000000000000000000000069
:103760000000000000000FF000000000000000005A
:103770000000000000000000000000000000000049
:103780000000000000000000000000000000000039
:1037900000000000000000000000000003C003C0A3
:1037A00003C0000000000000000000000000000056
:1037B000000000000000001800380030006000E049
:1037C00000C001C001800300030006000E000C00D1
:1037D0001C00180030000000000000000000000085
:1037E00000000000000001800FF01C38381C301C65
:1037F000707E70EE738E7E0E7C0C300C381C1E7842
:103800000FE00000000000000000000000000000C9
:10381000000000000000000007C01FC039C001C048
:1038200001C001C001C001C001C001C001C03FFC16
:103830003FFC00000000000000000000000000004D
:1038400000000000000003801FF018380038001846
:1038500000380038007001E0038007001C003FFCC6
:103860003FFC00000000000000000000000000001D
:1038700000000000000007801FF00038003800380A
:10388000003007E007F00038001C001C001820F88A
:103890003FE0000000000000000000000000000009
:1038A000000000000000000000F001B0033007300D
:1038B0000E301C30383070307FFE7FFE003000301C
:1038C00000300000000000000000000000000000C8
:1038D00000000000000000001FF818001800180089
:1038E00018001FE000F8001C001C001C003800F04D
:1038F0001FC00000000000000000000000000000E9
:10390000000000000000000003F80F001C00180079
:10391000300037F83C3C300C300C380C381C1E386A
:103920000FF0000000000000000000000000000098
:1039300000000000000000003FFC001C00180038E0
:103940000070006000E001C00180038007000600F5
:103950000E00000000000000000000000000000059
:1039600000000000000003C01FF8381C381C381C81
:103970001C380FF007F01C78381C300C381C3C3811
:103980000FF0000000000000000000000000000038
:1039900000000000000003801FF03838301C701C4D
:1039A000700C380C1FFC0FCC001C001800701FE0BE
:1039B0001F80000000000000000000000000000068
:1039C000000000000000000000000000000003C034
:1039D00003C00180000000000000000003C003C01D
:1039E00003C0000000000000000000000000000014
:1039F000000000000000000000000000000003C004
:103A000003C00180000000000000000003C003C0EC
:103A100001C001C003800F00000000000000000092
:103A2000000000000000000000000000003800F06E
:103A300001C007001E0038000E00078001C00070A2
:103A40000030000000000000000000000000000046
:103A50000000000000000000000000000000000066
:103A600000003FFC000000003FFC3FFC00000000A5
:103A70000000000000000000000000000000000046
:103A80000000000000000000000000001C000F000B
:103A9000038001E00078001C007001E003800E004C
:103AA0000C0000000000000000000000000000000A
:103AB0000000000000000FC000F00038003800389F
:103AC000003803F0038003000300000000000780BB
:103AD000078000000000000000000000000000005F
:103AE0000000000000E007F80C0C18063006700318
:103AF00063F36633C673CC63CC62CC66CCE6C7FC9A
:103B0000E0006000700038101FF0000000000000AE
:103B1000000000000000000003C007E006E00E7097
:103B20000E700C301C3818183FFC3FFC700E600EF5
:103B3000E00700000000000000000000000000009E
:103B400000000000000000003FF03838381C381C2E
:103B500038383FF03FF8381C380C380C381C3FF828
:103B60003FE0000000000000000000000000000036
:103B700000000000000000E007FC1E0438003800D0
:103B80003000700070007000300038003C001F9C56
:103B900007FC000000000000000000000000000022
:103BA00000000000000000003FF03078301C300CB6
:103BB000300E300E300E300E300E301C30383FF0EC
:103BC0003FC00000000000000000000000000000F6
:103BD00000000000000000001FF818001800180086
:103BE00018001FF81FF818001800180018001FF818
:103BF0001FF80000000000000000000000000000AE
:103C000000000000000000001FF818001800180055
:103C100018001FF81FF818001800180018001800E6
:103C2000180000000000000000000000000000007C
:103C300000000000000000F007FC1E043800300007
:103C40007000700070FC700C700C300C380C1F1C75
:103C500007FC000000000000000000000000000061
:103C60000000000000000000300C300C300C300C64
:103C7000300C3FFC3FFC300C300C300C300C300C66
:103C8000300C0000000000000000000000000000F8
:103C900000000000000000003FFC01800180018066
:103CA00001800180018001800180018001803FFC52
:103CB0003FFC0000000000000000000000000000C9
:103CC00000000000000000001FF000300030003055
:103CD00000300030003000300030003000701DE057
:103CE0001FC00000000000000000000000000000F5
:103CF0000000000000000000381C387038E039C0B7
:103D00003B803F003F003B8039C038E03870383896
:103D1000381C00000000000000000000000000004F
:103D200000000000000000001C001C001C001C0023
:103D30001C001C001C001C001C001C001C001FFCA4
:103D40001FFC000000000000000000000000000058
:103D50000000000000000000381C7C3C6C3E6E6ED1
:103D6000666E66CE63C66386618660066006600620
:103D700060060000000000000000000000000000DD
:103D800000000000000000003C0C3C0C3E0C360C17
:103D9000330C338C318C31CC30EC306C307C303C9B
:103DA000301C0000000000000000000000000000C7
:103DB00000000000000001C00FF81C3C381C700E11
:103DC000700E60066006700E700E700C381C1E7847
:103DD0000FE00000000000000000000000000000F4
:103DE00000000000000000003FF0383C381C380C98
:103DF000380C381C38783FE038003800380038007C
:103E0000380000000000000000000000000000007A
:103E100000000000000001C00FF81C3C381C700EB0
:103E2000700E60066006700E700E700C381C1E78E6
:103E30000FE0018001C000FF003C00000000000016
:103E400000000000000000003FF038383818381833
:103E5000383838F03FC038E0387038383838381CD7
:103E6000380E00000000000000000000000000000C
:103E700000000000000001E00FF8380038003800B2
:103E80003C001F8003F00078001C001C001C3878E8
:103E90003FE0000000000000000000000000000003
:103EA00000000000000000007FFE01800180018012
:103EB00001800180018001800180018001800180FA
:103EC0000180000000000000000000000000000071
:103ED0000000000000000000300C300C300C300CF2
:103EE000300C300C300C300C300C300C381C1C38C2
:103EF0000FF00000000000000000000000000000C3
:103F00000000000000000000E006700E700E381C7B
:103F1000381C1C181C380C300E70066007E003C0FB
:103F200003C00000000000000000000000000000CE
:103F300000000000000000006006600660066006E9
:103F40006186638673C673CE766C366C3C3C3C3CB3
:103F5000381C00000000000000000000000000000D
:103F60000000000000000000301C38181C380E70E3
:103F700007E003C003C007E00E701C381838381C77
:103F8000700E0000000000000000000000000000B3
:103F90000000000000000000700E700C381C1C387F
:103FA0000E70066007E003C001800180018001807F
:103FB0000180000000000000000000000000000080
:103FC00000000000000000003FFC001C00380070F2
:103FD00000E001C0038007000E000C0018003FFC49
:103FE0003FFC000000000000000000000000000096
:103FF0000000000007F007F00600060006000600BB
:104000000600060006000600060006000600060080
:10401000060006000600060007F000000000000091
:1040200000000000000018001C000C000600070043
:1040300003000380018001C000C0006000700030F8
:1040400000380018000C0000000000000000000014
:10405000000000000FE00FE0006000600060006002
:104060000060006000600060006000600060006050
:1040700000600060006000600FE0000000000000D1
:10408000000000000000000003C006C006600C3005
:104090001818301C000000000000000000000000A4
:1040A0000000000000000000000000000000000010
:1040B0000000000000000000000000000000000000
:1040C00000000000000000000000000000000000F0
:1040D0000000000000000000FFFF000000000000E2
:1040E0000000000000001E0003800000000000002F
:1040F00000000000000000000000000000000000C0
:1041000000000000000000000000000000000000AF
:1041100000000000000000000000000000001FF090
:104120001038001C001C0FFC1C1C381C381C3CFCEC
:104130001FDC000000000000000000000000000084
:1041400000000000000038003800380038003BF85C
:104150003E1C3C1C380C380C380C380C381C3C7895
:104160001FE0000000000000000000000000000050
:10417000000000000000000000000000000007F840
:104180000E001C0038003800380038001C000F18E2
:1041900007F8000000000000000000000000000020
:1041A000000000000000001C001C001C001C0FFC94
:1041B0001C1C381C301C301C301C301C383C1CFCB7
:1041C0000F9C000000000000000000000000000044
:1041D00000000000000000000000000000000FF0E0
:1041E0001C38381C300C3FFC3000300038001E0CEE
:1041F00007FC0000000000000000000000000000BC
:1042000000000000003C01FE0380030003000300E7
:104210007FFC7FFC03000300030003000300030096
:10422000030000000000000000000000000000008B
:1042300000000000000000000000000000000FFE71
:104240001C383818381818381FF03B8030003FF001
:104250001FFC300E700E381C1FF80000000000001C
:1042600000000000000038003800380038003BF83B
:104270003E383C1C381C381C381C381C381C381C78
:10428000381C0000000000000000000000000000DA
:1042900000000000018003C003C0000000001FC038
:1042A00001C001C001C001C001C001C001C001C006
:1042B0003FFC0000000000000000000000000000C3
:1042C00000000000002000700070000000003FF0BF
:1042D000007000700070007000700070007000705E
:1042E00000700070007020E03FC00000000000007F
:1042F0000000000000001800180018001800183C0A
:10430000187018E01B801F001B8019E01870183807
:10431000181C000000000000000000000000000069
:104320000000000000001FC001C001C001C001C0AA
:1043300001C001C001C001C001C001C001C001C075
:104340003FFC000000000000000000000000000032
:1043500000000000000000000000000000006F3CB2
:1043600079EE71CE718E718E718E718E718E718EAD
:10437000718E00000000000000000000000000003E
:1043800000000000000000000000000000003BF8FA
:104390003E383C1C381C381C381C381C381C381C57
:1043A000381C0000000000000000000000000000B9
:1043B00000000000000000000000000000000FF0FE
:1043C0001C3C381C700E700E700E700C381C1E7861
:1043D0000FE00000000000000000000000000000EE
:1043E00000000000000000000000000000003BF89A
:1043F0003E1C3C1C380C380C380C380C381C3C78F3
:104400003FE03800380038003800000000000000AD
:1044100000000000000000000000000000000FFC91
:104420001C1C381C301C301C301C301C383C1CFC44
:104430000F9C001C001C001C001C00000000000061
:10444000000000000000000000000000000019F85B
:104450001F1C1C0C180E180018001800180018005B
:104460001800000000000000000000000000000034
:1044700000000000000000000000000000000FF835
:104480001C0018001E000FC001F800180018183892
:104490001FF000000000000000000000000000000D
:1044A00000000000000000000600060006007FFC7F
:1044B0000600060006000600060006000700078446
:1044C00001FC0000000000000000000000000000EF
:1044D0000000000000000000000000000000381C88
:1044E000381C381C381C381C381C381C383C1CFC48
:1044F0000FDC0000000000000000000000000000D1
:104500000000000000000000000000000000700C2F
:10451000381C38181C380C300E70066007E003C0D9
:1045200003C00000000000000000000000000000C8
:104530000000000000000000000000000000600615
:1045400060066186738E73CC33CC366C366C3C3C23
:104550003C380000000000000000000000000000E7
:104560000000000000000000000000000000381CF7
:104570001C380E7007E003C003C007E00E701C3843
:10458000381E0000000000000000000000000000D5
:104590000000000000000000000000000000700C9F
:1045A000381C38181C380C300E70066007E003C049
:1045B00003C0038007000E007C0000000000000024
:1045C00000000000000000000000000000001FF8D4
:1045D0000038007000E001C0038007000C001FFCE1
:1045E0003FFC000000000000000000000000000090
:1045F00000000000007801F803800380038003803E
:10460000038003003F003E0003000380038003801B
:1046100003800380038001C000F800000000000058
:104620000180018001800180018001800180018082
:104630000180018001800180018001800180018072
:1046400001800180018001800180000000000000E5
:10465000000000001E001F80018001C001C001C0D9
:1046600001C000C000FC007C00C001C001C001C04E
:1046700001C001C001C003801F0000000000000055
:10468000000000000000000000000000000000002A
:1046900000001C003F0671CE60FC0000000000001E
:1046A000000000000000000000000000000000000A
:1046B00000000000000000000000000000000000FA
:1046C00000000000000000000000000000000000EA
:1046D00000000000000000000000000000000000DA
:1046E00000000000000000000000000000000000CA
:1046F00000000000000000000000000000000000BA
:1047000000000000000000000000000000000000A9
:104710000000000000000000000000000000003C5D
:1047200000003C00003C00003C00003C00003C005D
:10473000003C00003C00003C00003C00003C00004D
:104740003C00003C00003C00000000000000003C79
:1047500000007E00003C000000000000000000009F
:104760000000000000000000000000000000000049
:10477000000000000000000000000000000003C373
:10478000E003C3E003C3C003C3C003C3C003C3C08B
:1047900003C1C00000000000000000000000000095
:1047A0000000000000000000000000000000000009
:1047B00000000000000000000000000000000000F9
:1047C00000000000000000000000000000000000E9
:1047D00000000000000000000000000000000000D9
:1047E0000000000001E0E001C0E001C0E001C0E025
:1047F0003FFFFE3FFFFE03C1C00381C00381C00332
:1048000081C07FFFFC7FFFFC0783800703800703D5
:104810008007038007078000000000000000000000
:104820000000000000000000000000000000000088
:104830000000000000000000000000000700000F62
:1048400000000E0001FFF007FFF01F0E001E1E000B
:104850001E1C001E1C000FDC0007FC0000FF800077
:104860003FF00038F800387800783C0070783071FC
:10487000F83FFFE01FFF0000E00000E00000E00064
:104880000000000000000000000000000000000028
:1048900000000000000000000000000000000F8089
:1048A0000F3FE01E78703C7070707070E07071C0E7
:1048B0003FE3801FC700000E00001C0000780000CE
:1048C000F0F001E7FC03CF0E078E0E0F0E0E1E0E4A
:1048D0000E3C07BC7003F800000000000000000060
:1048E00000000000000000000000000000000000C8
:1048F00000000000000000000000000000000000B8
:104900000001FF0007FF800F03C00F03C00F03C0AB
:104910000F0780079F0003FE0003F0000FF83C3EE6
:104920007C3C3C1F3C780FF87807F87C01F03E0394
:10493000F81FFFFC07FE1F00000000000000000041
:104940000000000000000000000000000000000067
:104950000000000000000000000000000000003E19
:1049600000003C00003C00003C00003C00003C001B
:10497000003C0000000000000000000000000000FB
:104980000000000000000000000000000000000027
:104990000000000000000000000000000000000017
:1049A0000000000000000000000000000000000007
:1049B0000000000000000000000000000080000176
:1049C000C0000780000F00001E00003C00007800BF
:1049D00000F00000E00001E00001E00001C0000381
:1049E000C00003C00001C00001E00001E00000F0D1
:1049F0000000F000007800003C00001E00000F00E6
:104A00000007C00001C0000000000000000000001E
:104A1000000000000000000000000000000003C0D3
:104A20000001E00000F000007C00003E00001E00DD
:104A3000000F000007800007800003800003C00013
:104A400003C00003C00003C000038000078000070C
:104A500080000F00001E00003C0000780000F00005
:104A600001E00003800000000000000000000000E2
:104A70000000000000000000000000000000001C1A
:104A800000001C000018000F18F007DBE0007F009A
:104A900000FF0007DBE00E1870001800001C00008B
:104AA0001C000000000000000000000000000000EA
:104AB00000000000000000000000000000000000F6
:104AC00000000000000000000000000000000000E6
:104AD00000000000000000000000000000000000D6
:104AE00000000000000000000000000000003C008A
:104AF000003C00003C00003C00003C00003C003F4B
:104B0000FFFC3FFFFC003C00003C00003C00003C80
:104B100000003C0000000000000000000000000059
:104B20000000000000000000000000000000000085
:104B30000000000000000000000000000000000075
:104B40000000000000000000000000000000000065
:104B50000000000000000000000000000000000055
:104B60000000000000000000000000007C00007E4B
:104B700000007E00003E00001E00003C0000F80027
:104B800007E000040000000000000000000000003A
:104B90000000000000000000000000000000000015
:104BA0000000000000000000000000000000000005
:104BB00000000000000000000000000000000003F2
:104BC000FFE003FFE0000000000000000000000024
:104BD00000000000000000000000000000000000D5
:104BE00000000000000000000000000000000000C5
:104BF00000000000000000000000000000000000B5
:104C000000000000000000000000000000000000A4
:104C10000000000000000000000000000000000094
:104C20000000000000000000000000007C0000FE0A
:104C30000000FE00007E00000000000000000000F8
:104C40000000000000000000000000000000000064
:104C50000000000000000000000000000000000054
:104C6000780000F00000E00001E00003C0000380D5
:104C7000000780000F00000E00001E00003C000036
:104C8000380000700000F00000E00001C00003C028
:104C9000000780000700000F00001E00001C00003D
:104CA0000000000000000000000000000000000004
:104CB00000000000000000000000000000000000F4
:104CC0000000000001FFC007FFE00F00F01E0078A9
:104CD0001E003C3C00FC3C07FC3C1FBC3C7C1C3DDB
:104CE000F03C3FC03C3F003C1E00381E00780F8067
:104CF000F007FFE001FF800000000000000000005E
:104D000000000000000000000000000000000000A3
:104D10000000000000000000000000000000000093
:104D200000000000007E0003FE001FDE000E1E00DB
:104D3000001E00001E00001E00001E00001E0000DD
:104D40001E00001E00001E00001E00001E00001EAF
:104D5000000FFFF80FFFF800000000000000000047
:104D60000000000000000000000000000000000043
:104D70000000000000000000000000000000000033
:104D80000000000003FF800FFFE00E01F00000F0C4
:104D90000000F00000F00000F00001E00003C0009F
:104DA0000F80003E00007C0001F00003C0000F8077
:104DB000001FFFFC1FFFFC000000000000000000BF
:104DC00000000000000000000000000000000000E3
:104DD00000000000000000000000000000000000D3
:104DE000000000000FFF800FFFE00001E00000F076
:104DF0000000F00001E00003C001FF0001FFC0005F
:104E000003F00000780000780000780000780001CE
:104E1000F00FFFC00FFF00000000000000000000C6
:104E20000000000000000000000000000000000082
:104E30000000000000000000000000000000000072
:104E400000000000000FC0001FC0003FC0007BC07A
:104E500000F3C001E3C003C3C00783C00F03C01C3D
:104E600003C03803C07FFFFE7FFFFE0003C00003C6
:104E7000C00003C00003C0000000000000000000EC
:104E80000000000000000000000000000000000022
:104E90000000000000000000000000000000000012
:104EA000000000000FFFE00FFFE00F00000F000008
:104EB0000F00000F00000F00000FFF800FFFE00049
:104EC00000F00000780000780000780000F0000397
:104ED000E00FFFC00FFE0000000000000000000017
:104EE00000000000000000000000000000000000C2
:104EF00000000000000000000000000000000000B2
:104F000000000000003FF001FFF003E00007800018
:104F10000F00001E00001E1F001FFFE01FC1F81E33
:104F200000781E003C1E003C1E003C0F00780F80E5
:104F3000F807FFE001FF8000000000000000000013
:104F40000000000000000000000000000000000061
:104F50000000000000000000000000000000000051
:104F6000000000001FFFFC1FFFFC0000780000F0A5
:104F70000000E00001E00003C0000780000F000017
:104F80000F00001E00003C0000780000F00001F05F
:104F90000001E00003C0000000000000000000006D
:104FA0000000000000000000000000000000000001
:104FB00000000000000000000000000000000000F1
:104FC0000000000003FFE00FE3F00F00781E007800
:104FD0001E00780F00F007E3E001FF8001FF80076B
:104FE000E7E00F00F81E00781E003C1E007C1F004A
:104FF000F80FFFF003FFC0000000000000000000F9
:1050000000000000000000000000000000000000A0
:105010000000000000000000000000000000000090
:105020000000000003FF800FC7E01E00F01E0078A4
:105030003C00783C00783C00381E00780FEFF80701
:10504000FFB80000780000780000F00001E0000FD9
:10505000C00FFF000FF00000000000000000000083
:105060000000000000000000000000000000000040
:105070000000000000000000000000000000000030
:105080000000000000000000000000000000000020
:10509000007E00007E00007E00001800000000007E
:1050A0000000000000000000000000003C00007E46
:1050B00000007E00003E0000000000000000000034
:1050C00000000000000000000000000000000000E0
:1050D00000000000000000000000000000000000D0
:1050E00000000000000000000000000000000000C0
:1050F000007E00007E00007E00001800000000001E
:105100000000000000000000000000003E00007EE3
:1051100000007F00001F00001E00001E0000FC00B9
:1051200007F0000400000000000000000000000084
:10513000000000000000000000000000000000006F
:10514000000000000000000000000000400001E03E
:105150000007C0001F00007E0001F80003E0000F00
:1051600080000F800003E00000F800003E00000F08
:10517000800003E00000E0000000000000000000EC
:10518000000000000000000000000000000000001F
:10519000000000000000000000000000000000000F
:1051A00000000000000000000000000000000000FF
:1051B0000000000000000000001FFFF800000000D9
:1051C00000000000001FFFF81FFFF80000000000B3
:1051D00000000000000000000000000000000000CF
:1051E00000000000000000000000000000000000BF
:1051F00000000000000000000000000000000000AF
:105200000000000000000000000000000007800017
:1052100003E00000F800003E00000F800003E00003
:1052200000F80001F00007C0001F00007C0001F042
:105230000007C000030000000000000000000000A4
:10524000000000000000000000000000000000005E
:10525000000000000000000000000000000001C08D
:105260000001FE00007F800007C00001E00000F0A8
:105270000000F00001F00003E0007FC0007E0000AD
:10528000700000700000700000000000000000F8D6
:105290000000F80000F8000000000000000000001E
:1052A00000000000000000000000000000000000FE
:1052B0000000000000000000000000000000001FCF
:1052C0008000FFF003C07807801C0E000E1C000E4B
:1052D0003C000F383FC778FFC770E3C771C3C7F3FF
:1052E000C387E3C387E3878EE3878EE3CF8EE3FF35
:1052F000FC71F9F07000007000003800003C000004
:105300000F01C007FFC00000000000000000000007
:10531000000000000000000000000000000000008D
:1053200000000000007E00007F0000FF0000E7801A
:1053300001E78003C3C003C3C00781E00781E00F1A
:1053400000F00F00F81FFFF81FFFFC3C003C3C0082
:105350001E78001EF0000F0000000000000000009A
:10536000000000000000000000000000000000003D
:10537000000000000000000000000000000000002D
:10538000000000001FFFC01FFFF01E00F01E00788D
:105390001E00781E00F01E01F01FFFC01FFFE01E60
:1053A00001F81E00781E003C1E003C1E00781E0006
:1053B000F81FFFE01FFF00000000000000000000D9
:1053C00000000000000000000000000000000000DD
:1053D00000000000000000000000000000000000CD
:1053E0000000000000FFF803FFF807C0000F0000F6
:1053F0001E00001E00003C00003C00003C00003C81
:1054000000003C00003E00001E00000F00000FC026
:105410000803FFF800FFF800000000000000000093
:10542000000000000000000000000000000000007C
:10543000000000000000000000000000000000006C
:10544000000000003FFF003FFFE03C01F03C00781F
:105450003C003C3C003C3C003C3C001E3C001E3CF4
:10546000001E3C003C3C003C3C00783C00F83C0703
:10547000E03FFFC03FFC0000000000000000000013
:10548000000000000000000000000000000000001C
:10549000000000000000000000000000000000000C
:1054A000000000000FFFF00FFFF00F00000F0000E2
:1054B0000F00000F00000F00000FFFF00FFFF00FB4
:1054C00000000F00000F00000F00000F00000F0091
:1054D000000FFFF00FFFF0000000000000000000D0
:1054E00000000000000000000000000000000000BC
:1054F00000000000000000000000000000000000AC
:10550000000000000FFFF00FFFF00F00000F000081
:105510000F00000F00000F00000FFFF00FFFF00F53
:1055200000000F00000F00000F00000F00000F0030
:10553000000F00000F00000000000000000000004D
:10554000000000000000000000000000000000005B
:10555000000000000000000000000000000000004B
:105560000000000000FFFC03FFFC0FC0041F000050
:105570001E00003C00003C0000780FFC780FFC7817
:10558000003C3C003C3C003C3E003C1F003C0FC04B
:105590003C03FFFC00FFF8000000000000000000DA
:1055A00000000000000000000000000000000000FB
:1055B00000000000000000000000000000000000EB
:1055C000000000003C003C3C003C3C003C3C003CFB
:1055D0003C003C3C003C3C003C3FFFFC3FFFFC3CB3
:1055E000003C3C003C3C003C3C003C3C003C3C0063
:1055F0003C3C003C3C003C0000000000000000007F
:10560000000000000000000000000000000000009A
:10561000000000000000000000000000000000008A
:10562000000000000FFFF80FFFF8003C00003C00F6
:10563000003C00003C00003C00003C00003C00003E
:105640003C00003C00003C00003C00003C00003CF2
:10565000000FFFF80FFFF80000000000000000003E
:10566000000000000000000000000000000000003A
:10567000000000000000000000000000000000002A
:10568000000000000FFFE00FFFE00001E00001E07C
:105690000001E00001E00001E00001E00001E000A5
:1056A00001E00001E00001E00001E00003C00C07A0
:1056B000C00FFF8007FE0000000000000000000097
:1056C00000000000000000000000000000000000DA
:1056D00000000000000000000000000000000000CA
:1056E000000000001E00781E01F01E03C01E07808F
:1056F0001E1F001E3C001E78001EF0001FF0001E42
:10570000F8001E3C001E1E001E0F801E07C01E015A
:10571000E01E00F81E007C000000000000000000F9
:105720000000000000000000000000000000000079
:105730000000000000000000000000000000000069
:10574000000000000780000780000780000780003D
:10575000078000078000078000078000078000079F
:105760008000078000078000078000078000078016
:105770000007FFF807FFF80000000000000000002D
:105780000000000000000000000000000000000019
:105790000000000000000000000000000000000009
:1057A000000000003E007C3F00FC3F81DC3B81DCD0
:1057B0003BC39C39C39C38E71C38EF1C387E1C382F
:1057C0007C1E383C1E78001E78001E78001E780073
:1057D0001E78001E78001E0000000000000000007F
:1057E00000000000000000000000000000000000B9
:1057F00000000000000000000000000000000000A9
:10580000000000001F003C1F803C1FC03C1DC03C2E
:105810001DE03C1CF03C1C783C1C783C1C3C3C1CB7
:105820001E3C1C0F3C1C0F3C1C07BC1C03FC1C0139
:10583000FC1C00FC1C00FC0000000000000000003C
:105840000000000000000000000000000000000058
:105850000000000000000000000000000000000048
:105860000000000001FFC007FFF00F00F81E007CE1
:105870003C003C3C001E78001E78001E78001E781C
:10588000001E78001E3C003C3C003C1E00781F00BF
:10589000F007FFE001FF80000000000000000000B2
:1058A00000000000000000000000000000000000F8
:1058B00000000000000000000000000000000000E8
:1058C000000000001FFF801FFFF01E00F81E007C7C
:1058D0001E003C1E003C1E003C1E00781E03F01FF4
:1058E000FFC01FFE001E00001E00001E00001E0064
:1058F000001E00001E00000000000000000000006C
:105900000000000000000000000000000000000097
:105910000000000000000000000000000000000087
:105920000000000001FFC007FFF00F00F81E007C20
:105930003C003C3C001E78001E78001E78001E785B
:10594000001E78001E3C003C3C003C1E00781F807E
:10595000F007FFE001FF80003C00003C00001F0654
:10596000000FFF0001F80000000000000000000030
:105970000000000000000000000000000000000027
:10598000000000000FFF800FFFE00E01F00E00F09E
:105990000E00F00E00F00E01F00FFFC00FFF000E22
:1059A0001F000E07800E03C00E01E00E00F00E0077
:1059B000F80E00780E003C0000000000000000001F
:1059C00000000000000000000000000000000000D7
:1059D00000000000000000000000000000000000C7
:1059E0000000000003FFF00FFFF01F00001E00008A
:1059F0001E00001F00000FC00007FC0000FF800019
:105A00000FF00001F8000078000078000078200016
:105A1000F83FFFE03FFF80000000000000000000B2
:105A20000000000000000000000000000000000076
:105A30000000000000000000000000000000000066
:105A4000000000003FFFFC3FFFFC003C00003C006A
:105A5000003C00003C00003C00003C00003C00001A
:105A60003C00003C00003C00003C00003C00003CCE
:105A700000003C00003C00000000000000000000AE
:105A80000000000000000000000000000000000016
:105A90000000000000000000000000000000000006
:105AA000000000003C003C3C003C3C003C3C003C16
:105AB0003C003C3C003C3C003C3C003C3C003C3C52
:105AC000003C3C003C3C003C3C003C1E00781F007D
:105AD000F80FFFE003FF800000000000000000005E
